{
  "_format": "hh-sol-artifact-1",
  "contractName": "MusicNFTMarketplace",
  "sourceName": "src/backend/contracts/MusicNFTMarketplace.sol",
  "abi": [
    {
      "inputs": [
        {
          "internalType": "uint256",
          "name": "_royaltyFee",
          "type": "uint256"
        },
        {
          "internalType": "address",
          "name": "_artist",
          "type": "address"
        },
        {
          "internalType": "uint256[]",
          "name": "_prices",
          "type": "uint256[]"
        }
      ],
      "stateMutability": "payable",
      "type": "constructor"
    },
    {
      "anonymous": false,
      "inputs": [
        {
          "indexed": true,
          "internalType": "address",
          "name": "owner",
          "type": "address"
        },
        {
          "indexed": true,
          "internalType": "address",
          "name": "approved",
          "type": "address"
        },
        {
          "indexed": true,
          "internalType": "uint256",
          "name": "tokenId",
          "type": "uint256"
        }
      ],
      "name": "Approval",
      "type": "event"
    },
    {
      "anonymous": false,
      "inputs": [
        {
          "indexed": true,
          "internalType": "address",
          "name": "owner",
          "type": "address"
        },
        {
          "indexed": true,
          "internalType": "address",
          "name": "operator",
          "type": "address"
        },
        {
          "indexed": false,
          "internalType": "bool",
          "name": "approved",
          "type": "bool"
        }
      ],
      "name": "ApprovalForAll",
      "type": "event"
    },
    {
      "anonymous": false,
      "inputs": [
        {
          "indexed": true,
          "internalType": "uint256",
          "name": "tokenId",
          "type": "uint256"
        },
        {
          "indexed": true,
          "internalType": "address",
          "name": "seller",
          "type": "address"
        },
        {
          "indexed": false,
          "internalType": "address",
          "name": "buyer",
          "type": "address"
        },
        {
          "indexed": false,
          "internalType": "uint256",
          "name": "price",
          "type": "uint256"
        }
      ],
      "name": "MarketItemBought",
      "type": "event"
    },
    {
      "anonymous": false,
      "inputs": [
        {
          "indexed": true,
          "internalType": "uint256",
          "name": "tokenId",
          "type": "uint256"
        },
        {
          "indexed": true,
          "internalType": "address",
          "name": "seller",
          "type": "address"
        },
        {
          "indexed": false,
          "internalType": "uint256",
          "name": "price",
          "type": "uint256"
        }
      ],
      "name": "MarketItemRelisted",
      "type": "event"
    },
    {
      "anonymous": false,
      "inputs": [
        {
          "indexed": true,
          "internalType": "address",
          "name": "previousOwner",
          "type": "address"
        },
        {
          "indexed": true,
          "internalType": "address",
          "name": "newOwner",
          "type": "address"
        }
      ],
      "name": "OwnershipTransferred",
      "type": "event"
    },
    {
      "anonymous": false,
      "inputs": [
        {
          "indexed": true,
          "internalType": "address",
          "name": "from",
          "type": "address"
        },
        {
          "indexed": true,
          "internalType": "address",
          "name": "to",
          "type": "address"
        },
        {
          "indexed": true,
          "internalType": "uint256",
          "name": "tokenId",
          "type": "uint256"
        }
      ],
      "name": "Transfer",
      "type": "event"
    },
    {
      "inputs": [
        {
          "internalType": "address",
          "name": "to",
          "type": "address"
        },
        {
          "internalType": "uint256",
          "name": "tokenId",
          "type": "uint256"
        }
      ],
      "name": "approve",
      "outputs": [],
      "stateMutability": "nonpayable",
      "type": "function"
    },
    {
      "inputs": [],
      "name": "artist",
      "outputs": [
        {
          "internalType": "address",
          "name": "",
          "type": "address"
        }
      ],
      "stateMutability": "view",
      "type": "function"
    },
    {
      "inputs": [
        {
          "internalType": "address",
          "name": "owner",
          "type": "address"
        }
      ],
      "name": "balanceOf",
      "outputs": [
        {
          "internalType": "uint256",
          "name": "",
          "type": "uint256"
        }
      ],
      "stateMutability": "view",
      "type": "function"
    },
    {
      "inputs": [],
      "name": "baseExtension",
      "outputs": [
        {
          "internalType": "string",
          "name": "",
          "type": "string"
        }
      ],
      "stateMutability": "view",
      "type": "function"
    },
    {
      "inputs": [],
      "name": "baseURI",
      "outputs": [
        {
          "internalType": "string",
          "name": "",
          "type": "string"
        }
      ],
      "stateMutability": "view",
      "type": "function"
    },
    {
      "inputs": [
        {
          "internalType": "uint256",
          "name": "_tokenId",
          "type": "uint256"
        }
      ],
      "name": "buyToken",
      "outputs": [],
      "stateMutability": "payable",
      "type": "function"
    },
    {
      "inputs": [],
      "name": "getAllUnsoldTokens",
      "outputs": [
        {
          "components": [
            {
              "internalType": "uint256",
              "name": "tokenId",
              "type": "uint256"
            },
            {
              "internalType": "address payable",
              "name": "seller",
              "type": "address"
            },
            {
              "internalType": "uint256",
              "name": "price",
              "type": "uint256"
            }
          ],
          "internalType": "struct MusicNFTMarketplace.MarketItem[]",
          "name": "",
          "type": "tuple[]"
        }
      ],
      "stateMutability": "view",
      "type": "function"
    },
    {
      "inputs": [
        {
          "internalType": "uint256",
          "name": "tokenId",
          "type": "uint256"
        }
      ],
      "name": "getApproved",
      "outputs": [
        {
          "internalType": "address",
          "name": "",
          "type": "address"
        }
      ],
      "stateMutability": "view",
      "type": "function"
    },
    {
      "inputs": [],
      "name": "getMyTokens",
      "outputs": [
        {
          "components": [
            {
              "internalType": "uint256",
              "name": "tokenId",
              "type": "uint256"
            },
            {
              "internalType": "address payable",
              "name": "seller",
              "type": "address"
            },
            {
              "internalType": "uint256",
              "name": "price",
              "type": "uint256"
            }
          ],
          "internalType": "struct MusicNFTMarketplace.MarketItem[]",
          "name": "",
          "type": "tuple[]"
        }
      ],
      "stateMutability": "view",
      "type": "function"
    },
    {
      "inputs": [
        {
          "internalType": "address",
          "name": "owner",
          "type": "address"
        },
        {
          "internalType": "address",
          "name": "operator",
          "type": "address"
        }
      ],
      "name": "isApprovedForAll",
      "outputs": [
        {
          "internalType": "bool",
          "name": "",
          "type": "bool"
        }
      ],
      "stateMutability": "view",
      "type": "function"
    },
    {
      "inputs": [
        {
          "internalType": "uint256",
          "name": "",
          "type": "uint256"
        }
      ],
      "name": "marketItems",
      "outputs": [
        {
          "internalType": "uint256",
          "name": "tokenId",
          "type": "uint256"
        },
        {
          "internalType": "address payable",
          "name": "seller",
          "type": "address"
        },
        {
          "internalType": "uint256",
          "name": "price",
          "type": "uint256"
        }
      ],
      "stateMutability": "view",
      "type": "function"
    },
    {
      "inputs": [],
      "name": "name",
      "outputs": [
        {
          "internalType": "string",
          "name": "",
          "type": "string"
        }
      ],
      "stateMutability": "view",
      "type": "function"
    },
    {
      "inputs": [],
      "name": "owner",
      "outputs": [
        {
          "internalType": "address",
          "name": "",
          "type": "address"
        }
      ],
      "stateMutability": "view",
      "type": "function"
    },
    {
      "inputs": [
        {
          "internalType": "uint256",
          "name": "tokenId",
          "type": "uint256"
        }
      ],
      "name": "ownerOf",
      "outputs": [
        {
          "internalType": "address",
          "name": "",
          "type": "address"
        }
      ],
      "stateMutability": "view",
      "type": "function"
    },
    {
      "inputs": [],
      "name": "renounceOwnership",
      "outputs": [],
      "stateMutability": "nonpayable",
      "type": "function"
    },
    {
      "inputs": [
        {
          "internalType": "uint256",
          "name": "_tokenId",
          "type": "uint256"
        },
        {
          "internalType": "uint256",
          "name": "_price",
          "type": "uint256"
        }
      ],
      "name": "resellToken",
      "outputs": [],
      "stateMutability": "payable",
      "type": "function"
    },
    {
      "inputs": [],
      "name": "royaltyFee",
      "outputs": [
        {
          "internalType": "uint256",
          "name": "",
          "type": "uint256"
        }
      ],
      "stateMutability": "view",
      "type": "function"
    },
    {
      "inputs": [
        {
          "internalType": "address",
          "name": "from",
          "type": "address"
        },
        {
          "internalType": "address",
          "name": "to",
          "type": "address"
        },
        {
          "internalType": "uint256",
          "name": "tokenId",
          "type": "uint256"
        }
      ],
      "name": "safeTransferFrom",
      "outputs": [],
      "stateMutability": "nonpayable",
      "type": "function"
    },
    {
      "inputs": [
        {
          "internalType": "address",
          "name": "from",
          "type": "address"
        },
        {
          "internalType": "address",
          "name": "to",
          "type": "address"
        },
        {
          "internalType": "uint256",
          "name": "tokenId",
          "type": "uint256"
        },
        {
          "internalType": "bytes",
          "name": "data",
          "type": "bytes"
        }
      ],
      "name": "safeTransferFrom",
      "outputs": [],
      "stateMutability": "nonpayable",
      "type": "function"
    },
    {
      "inputs": [
        {
          "internalType": "address",
          "name": "operator",
          "type": "address"
        },
        {
          "internalType": "bool",
          "name": "approved",
          "type": "bool"
        }
      ],
      "name": "setApprovalForAll",
      "outputs": [],
      "stateMutability": "nonpayable",
      "type": "function"
    },
    {
      "inputs": [
        {
          "internalType": "bytes4",
          "name": "interfaceId",
          "type": "bytes4"
        }
      ],
      "name": "supportsInterface",
      "outputs": [
        {
          "internalType": "bool",
          "name": "",
          "type": "bool"
        }
      ],
      "stateMutability": "view",
      "type": "function"
    },
    {
      "inputs": [],
      "name": "symbol",
      "outputs": [
        {
          "internalType": "string",
          "name": "",
          "type": "string"
        }
      ],
      "stateMutability": "view",
      "type": "function"
    },
    {
      "inputs": [
        {
          "internalType": "uint256",
          "name": "tokenId",
          "type": "uint256"
        }
      ],
      "name": "tokenURI",
      "outputs": [
        {
          "internalType": "string",
          "name": "",
          "type": "string"
        }
      ],
      "stateMutability": "view",
      "type": "function"
    },
    {
      "inputs": [
        {
          "internalType": "address",
          "name": "from",
          "type": "address"
        },
        {
          "internalType": "address",
          "name": "to",
          "type": "address"
        },
        {
          "internalType": "uint256",
          "name": "tokenId",
          "type": "uint256"
        }
      ],
      "name": "transferFrom",
      "outputs": [],
      "stateMutability": "nonpayable",
      "type": "function"
    },
    {
      "inputs": [
        {
          "internalType": "address",
          "name": "newOwner",
          "type": "address"
        }
      ],
      "name": "transferOwnership",
      "outputs": [],
      "stateMutability": "nonpayable",
      "type": "function"
    }
  ],
  "bytecode": "0x60806040526040518060800160405280605981526020016200453a6059913960079080519060200190620000359291906200077b565b506040518060400160405280600581526020017f2e6a736f6e00000000000000000000000000000000000000000000000000000081525060089080519060200190620000839291906200077b565b5060405162004593380380620045938339818101604052810190620000a99190620008fb565b6040518060400160405280600681526020017f44417070466900000000000000000000000000000000000000000000000000008152506040518060400160405280600481526020017f444150500000000000000000000000000000000000000000000000000000000081525081600090805190602001906200012d9291906200077b565b508060019080519060200190620001469291906200077b565b505050620001696200015d620003d460201b60201c565b620003dc60201b60201c565b3483825162000179919062000af7565b1115620001bd576040517f08c379a0000000000000000000000000000000000000000000000000000000008152600401620001b49062000a4a565b60405180910390fd5b82600a8190555081600960006101000a81548173ffffffffffffffffffffffffffffffffffffffff021916908373ffffffffffffffffffffffffffffffffffffffff16021790555060005b81518160ff161015620003ca576000828260ff168151811062000254577f4e487b7100000000000000000000000000000000000000000000000000000000600052603260045260246000fd5b6020026020010151116200029f576040517f08c379a0000000000000000000000000000000000000000000000000000000008152600401620002969062000a6c565b60405180910390fd5b620002b4308260ff16620004a260201b60201c565b600b60405180606001604052808360ff1681526020013373ffffffffffffffffffffffffffffffffffffffff168152602001848460ff168151811062000323577f4e487b7100000000000000000000000000000000000000000000000000000000600052603260045260246000fd5b602002602001015181525090806001815401808255809150506001900390600052602060002090600302016000909190919091506000820151816000015560208201518160010160006101000a81548173ffffffffffffffffffffffffffffffffffffffff021916908373ffffffffffffffffffffffffffffffffffffffff1602179055506040820151816002015550508080620003c19062000c0f565b91505062000208565b5050505062000e00565b600033905090565b6000600660009054906101000a900473ffffffffffffffffffffffffffffffffffffffff16905081600660006101000a81548173ffffffffffffffffffffffffffffffffffffffff021916908373ffffffffffffffffffffffffffffffffffffffff1602179055508173ffffffffffffffffffffffffffffffffffffffff168173ffffffffffffffffffffffffffffffffffffffff167f8be0079c531659141344cd1fd0a4f28419497f9722a3daafe3b4186f6b6457e060405160405180910390a35050565b600073ffffffffffffffffffffffffffffffffffffffff168273ffffffffffffffffffffffffffffffffffffffff16141562000515576040517f08c379a00000000000000000000000000000000000000000000000000000000081526004016200050c9062000a28565b60405180910390fd5b6200052681620006e960201b60201c565b1562000569576040517f08c379a0000000000000000000000000000000000000000000000000000000008152600401620005609062000a06565b60405180910390fd5b6200057f6000838360016200073260201b60201c565b6200059081620006e960201b60201c565b15620005d3576040517f08c379a0000000000000000000000000000000000000000000000000000000008152600401620005ca9062000a06565b60405180910390fd5b6001600360008473ffffffffffffffffffffffffffffffffffffffff1673ffffffffffffffffffffffffffffffffffffffff16815260200190815260200160002060008282540192505081905550816002600083815260200190815260200160002060006101000a81548173ffffffffffffffffffffffffffffffffffffffff021916908373ffffffffffffffffffffffffffffffffffffffff160217905550808273ffffffffffffffffffffffffffffffffffffffff16600073ffffffffffffffffffffffffffffffffffffffff167fddf252ad1be2c89b69c2b068fc378daa952ba7f163c4a11628f55a4df523b3ef60405160405180910390a4620006e56000838360016200073860201b60201c565b5050565b60008073ffffffffffffffffffffffffffffffffffffffff1662000713836200073e60201b60201c565b73ffffffffffffffffffffffffffffffffffffffff1614159050919050565b50505050565b50505050565b60006002600083815260200190815260200160002060009054906101000a900473ffffffffffffffffffffffffffffffffffffffff169050919050565b828054620007899062000ba3565b90600052602060002090601f016020900481019282620007ad5760008555620007f9565b82601f10620007c857805160ff1916838001178555620007f9565b82800160010185558215620007f9579182015b82811115620007f8578251825591602001919060010190620007db565b5b5090506200080891906200080c565b5090565b5b80821115620008275760008160009055506001016200080d565b5090565b6000620008426200083c8462000ab7565b62000a8e565b905080838252602082019050828560208602820111156200086257600080fd5b60005b858110156200089657816200087b8882620008e4565b84526020840193506020830192505060018101905062000865565b5050509392505050565b600081519050620008b18162000dcc565b92915050565b600082601f830112620008c957600080fd5b8151620008db8482602086016200082b565b91505092915050565b600081519050620008f58162000de6565b92915050565b6000806000606084860312156200091157600080fd5b60006200092186828701620008e4565b93505060206200093486828701620008a0565b925050604084015167ffffffffffffffff8111156200095257600080fd5b6200096086828701620008b7565b9150509250925092565b600062000979601c8362000ae6565b9150620009868262000cdc565b602082019050919050565b6000620009a060208362000ae6565b9150620009ad8262000d05565b602082019050919050565b6000620009c760468362000ae6565b9150620009d48262000d2e565b606082019050919050565b6000620009ee601c8362000ae6565b9150620009fb8262000da3565b602082019050919050565b6000602082019050818103600083015262000a21816200096a565b9050919050565b6000602082019050818103600083015262000a438162000991565b9050919050565b6000602082019050818103600083015262000a6581620009b8565b9050919050565b6000602082019050818103600083015262000a8781620009df565b9050919050565b600062000a9a62000aad565b905062000aa8828262000bd9565b919050565b6000604051905090565b600067ffffffffffffffff82111562000ad55762000ad462000c9c565b5b602082029050602081019050919050565b600082825260208201905092915050565b600062000b048262000b8c565b915062000b118362000b8c565b9250817fffffffffffffffffffffffffffffffffffffffffffffffffffffffffffffffff048311821515161562000b4d5762000b4c62000c3e565b5b828202905092915050565b600062000b658262000b6c565b9050919050565b600073ffffffffffffffffffffffffffffffffffffffff82169050919050565b6000819050919050565b600060ff82169050919050565b6000600282049050600182168062000bbc57607f821691505b6020821081141562000bd35762000bd262000c6d565b5b50919050565b62000be48262000ccb565b810181811067ffffffffffffffff8211171562000c065762000c0562000c9c565b5b80604052505050565b600062000c1c8262000b96565b915060ff82141562000c335762000c3262000c3e565b5b600182019050919050565b7f4e487b7100000000000000000000000000000000000000000000000000000000600052601160045260246000fd5b7f4e487b7100000000000000000000000000000000000000000000000000000000600052602260045260246000fd5b7f4e487b7100000000000000000000000000000000000000000000000000000000600052604160045260246000fd5b6000601f19601f8301169050919050565b7f4552433732313a20746f6b656e20616c7265616479206d696e74656400000000600082015250565b7f4552433732313a206d696e7420746f20746865207a65726f2061646472657373600082015250565b7f4465706c6f796572206d7573742070617920726f79616c74792066656520666f60008201527f72206561636820746f6b656e206c6973746564206f6e20746865206d61726b6560208201527f74706c6163650000000000000000000000000000000000000000000000000000604082015250565b7f5072696365206d7573742062652067726561746572207468616e203000000000600082015250565b62000dd78162000b58565b811462000de357600080fd5b50565b62000df18162000b8c565b811462000dfd57600080fd5b50565b61372a8062000e106000396000f3fe6080604052600436106101665760003560e01c806370a08231116100d1578063b88d4fde1161008a578063c87b56dd11610064578063c87b56dd14610521578063e219fc751461055e578063e985e9c51461057a578063f2fde38b146105b757610166565b8063b88d4fde146104a2578063b8997a97146104cb578063c6682862146104f657610166565b806370a08231146103a4578063715018a6146103e1578063767dd076146103f85780638da5cb5b1461042357806395d89b411461044e578063a22cb4651461047957610166565b806342842e0e1161012357806342842e0e1461027e57806343bc1612146102a757806351f28e14146102d25780635b3b136a146103115780636352211e1461033c5780636c0360eb1461037957610166565b806301ffc9a71461016b57806306fdde03146101a8578063081812fc146101d3578063095ea7b31461021057806323b872dd146102395780632d296bf114610262575b600080fd5b34801561017757600080fd5b50610192600480360381019061018d91906128a5565b6105e0565b60405161019f9190612dd1565b60405180910390f35b3480156101b457600080fd5b506101bd6106c2565b6040516101ca9190612dec565b60405180910390f35b3480156101df57600080fd5b506101fa60048036038101906101f591906128f7565b610754565b6040516102079190612d1f565b60405180910390f35b34801561021c57600080fd5b5061023760048036038101906102329190612869565b61079a565b005b34801561024557600080fd5b50610260600480360381019061025b9190612763565b6108b2565b005b61027c600480360381019061027791906128f7565b610912565b005b34801561028a57600080fd5b506102a560048036038101906102a09190612763565b610bb2565b005b3480156102b357600080fd5b506102bc610bd2565b6040516102c99190612d1f565b60405180910390f35b3480156102de57600080fd5b506102f960048036038101906102f491906128f7565b610bf8565b60405161030893929190612fe9565b60405180910390f35b34801561031d57600080fd5b50610326610c52565b6040516103339190612daf565b60405180910390f35b34801561034857600080fd5b50610363600480360381019061035e91906128f7565b610e5d565b6040516103709190612d1f565b60405180910390f35b34801561038557600080fd5b5061038e610ee4565b60405161039b9190612dec565b60405180910390f35b3480156103b057600080fd5b506103cb60048036038101906103c691906126fe565b610f72565b6040516103d89190612fce565b60405180910390f35b3480156103ed57600080fd5b506103f661102a565b005b34801561040457600080fd5b5061040d61103e565b60405161041a9190612daf565b60405180910390f35b34801561042f57600080fd5b506104386112ac565b6040516104459190612d1f565b60405180910390f35b34801561045a57600080fd5b506104636112d6565b6040516104709190612dec565b60405180910390f35b34801561048557600080fd5b506104a0600480360381019061049b919061282d565b611368565b005b3480156104ae57600080fd5b506104c960048036038101906104c491906127b2565b61137e565b005b3480156104d757600080fd5b506104e06113e0565b6040516104ed9190612fce565b60405180910390f35b34801561050257600080fd5b5061050b6113e6565b6040516105189190612dec565b60405180910390f35b34801561052d57600080fd5b50610548600480360381019061054391906128f7565b611474565b6040516105559190612dec565b60405180910390f35b61057860048036038101906105739190612920565b6114dc565b005b34801561058657600080fd5b506105a1600480360381019061059c9190612727565b61169b565b6040516105ae9190612dd1565b60405180910390f35b3480156105c357600080fd5b506105de60048036038101906105d991906126fe565b61172f565b005b60007f80ac58cd000000000000000000000000000000000000000000000000000000007bffffffffffffffffffffffffffffffffffffffffffffffffffffffff1916827bffffffffffffffffffffffffffffffffffffffffffffffffffffffff191614806106ab57507f5b5e139f000000000000000000000000000000000000000000000000000000007bffffffffffffffffffffffffffffffffffffffffffffffffffffffff1916827bffffffffffffffffffffffffffffffffffffffffffffffffffffffff1916145b806106bb57506106ba826117b3565b5b9050919050565b6060600080546106d1906131ba565b80601f01602080910402602001604051908101604052809291908181526020018280546106fd906131ba565b801561074a5780601f1061071f5761010080835404028352916020019161074a565b820191906000526020600020905b81548152906001019060200180831161072d57829003601f168201915b5050505050905090565b600061075f8261181d565b6004600083815260200190815260200160002060009054906101000a900473ffffffffffffffffffffffffffffffffffffffff169050919050565b60006107a582610e5d565b90508073ffffffffffffffffffffffffffffffffffffffff168373ffffffffffffffffffffffffffffffffffffffff161415610816576040517f08c379a000000000000000000000000000000000000000000000000000000000815260040161080d90612f8e565b60405180910390fd5b8073ffffffffffffffffffffffffffffffffffffffff16610835611868565b73ffffffffffffffffffffffffffffffffffffffff16148061086457506108638161085e611868565b61169b565b5b6108a3576040517f08c379a000000000000000000000000000000000000000000000000000000000815260040161089a90612fae565b60405180910390fd5b6108ad8383611870565b505050565b6108c36108bd611868565b82611929565b610902576040517f08c379a00000000000000000000000000000000000000000000000000000000081526004016108f990612e0e565b60405180910390fd5b61090d8383836119be565b505050565b6000600b828154811061094e577f4e487b7100000000000000000000000000000000000000000000000000000000600052603260045260246000fd5b90600052602060002090600302016002015490506000600b838154811061099e577f4e487b7100000000000000000000000000000000000000000000000000000000600052603260045260246000fd5b906000526020600020906003020160010160009054906101000a900473ffffffffffffffffffffffffffffffffffffffff169050813414610a14576040517f08c379a0000000000000000000000000000000000000000000000000000000008152600401610a0b90612f2e565b60405180910390fd5b6000600b8481548110610a50577f4e487b7100000000000000000000000000000000000000000000000000000000600052603260045260246000fd5b906000526020600020906003020160010160006101000a81548173ffffffffffffffffffffffffffffffffffffffff021916908373ffffffffffffffffffffffffffffffffffffffff160217905550610aaa3033856119be565b600960009054906101000a900473ffffffffffffffffffffffffffffffffffffffff1673ffffffffffffffffffffffffffffffffffffffff166108fc600a549081150290604051600060405180830381858888f19350505050158015610b14573d6000803e3d6000fd5b508073ffffffffffffffffffffffffffffffffffffffff166108fc349081150290604051600060405180830381858888f19350505050158015610b5b573d6000803e3d6000fd5b508073ffffffffffffffffffffffffffffffffffffffff16837fd356b8423ef89ccba8e4f1dbeccc60b41825fd97d432f2e6a6dbd11ae6ecec113385604051610ba5929190612d86565b60405180910390a3505050565b610bcd8383836040518060200160405280600081525061137e565b505050565b600960009054906101000a900473ffffffffffffffffffffffffffffffffffffffff1681565b600b8181548110610c0857600080fd5b90600052602060002090600302016000915090508060000154908060010160009054906101000a900473ffffffffffffffffffffffffffffffffffffffff16908060020154905083565b60606000610c5f33610f72565b905060008167ffffffffffffffff811115610ca3577f4e487b7100000000000000000000000000000000000000000000000000000000600052604160045260246000fd5b604051908082528060200260200182016040528015610cdc57816020015b610cc96125f6565b815260200190600190039081610cc15790505b509050600080600090505b600b80549050811015610e53573373ffffffffffffffffffffffffffffffffffffffff16610d1482610e5d565b73ffffffffffffffffffffffffffffffffffffffff161415610e4057600b8181548110610d6a577f4e487b7100000000000000000000000000000000000000000000000000000000600052603260045260246000fd5b9060005260206000209060030201604051806060016040529081600082015481526020016001820160009054906101000a900473ffffffffffffffffffffffffffffffffffffffff1673ffffffffffffffffffffffffffffffffffffffff1673ffffffffffffffffffffffffffffffffffffffff168152602001600282015481525050838381518110610e26577f4e487b7100000000000000000000000000000000000000000000000000000000600052603260045260246000fd5b60200260200101819052508180610e3c9061321d565b9250505b8080610e4b9061321d565b915050610ce7565b5081935050505090565b600080610e6983611cb8565b9050600073ffffffffffffffffffffffffffffffffffffffff168173ffffffffffffffffffffffffffffffffffffffff161415610edb576040517f08c379a0000000000000000000000000000000000000000000000000000000008152600401610ed290612f6e565b60405180910390fd5b80915050919050565b60078054610ef1906131ba565b80601f0160208091040260200160405190810160405280929190818152602001828054610f1d906131ba565b8015610f6a5780601f10610f3f57610100808354040283529160200191610f6a565b820191906000526020600020905b815481529060010190602001808311610f4d57829003601f168201915b505050505081565b60008073ffffffffffffffffffffffffffffffffffffffff168273ffffffffffffffffffffffffffffffffffffffff161415610fe3576040517f08c379a0000000000000000000000000000000000000000000000000000000008152600401610fda90612f0e565b60405180910390fd5b600360008373ffffffffffffffffffffffffffffffffffffffff1673ffffffffffffffffffffffffffffffffffffffff168152602001908152602001600020549050919050565b611032611cf5565b61103c6000611d73565b565b6060600061104b30610f72565b905060008167ffffffffffffffff81111561108f577f4e487b7100000000000000000000000000000000000000000000000000000000600052604160045260246000fd5b6040519080825280602002602001820160405280156110c857816020015b6110b56125f6565b8152602001906001900390816110ad5790505b509050600080600090505b600b805490508110156112a257600073ffffffffffffffffffffffffffffffffffffffff16600b8281548110611132577f4e487b7100000000000000000000000000000000000000000000000000000000600052603260045260246000fd5b906000526020600020906003020160010160009054906101000a900473ffffffffffffffffffffffffffffffffffffffff1673ffffffffffffffffffffffffffffffffffffffff161461128f57600b81815481106111b9577f4e487b7100000000000000000000000000000000000000000000000000000000600052603260045260246000fd5b9060005260206000209060030201604051806060016040529081600082015481526020016001820160009054906101000a900473ffffffffffffffffffffffffffffffffffffffff1673ffffffffffffffffffffffffffffffffffffffff1673ffffffffffffffffffffffffffffffffffffffff168152602001600282015481525050838381518110611275577f4e487b7100000000000000000000000000000000000000000000000000000000600052603260045260246000fd5b6020026020010181905250818061128b9061321d565b9250505b808061129a9061321d565b9150506110d3565b5081935050505090565b6000600660009054906101000a900473ffffffffffffffffffffffffffffffffffffffff16905090565b6060600180546112e5906131ba565b80601f0160208091040260200160405190810160405280929190818152602001828054611311906131ba565b801561135e5780601f106113335761010080835404028352916020019161135e565b820191906000526020600020905b81548152906001019060200180831161134157829003601f168201915b5050505050905090565b61137a611373611868565b8383611e39565b5050565b61138f611389611868565b83611929565b6113ce576040517f08c379a00000000000000000000000000000000000000000000000000000000081526004016113c590612e0e565b60405180910390fd5b6113da84848484611fa6565b50505050565b600a5481565b600880546113f3906131ba565b80601f016020809104026020016040519081016040528092919081815260200182805461141f906131ba565b801561146c5780601f106114415761010080835404028352916020019161146c565b820191906000526020600020905b81548152906001019060200180831161144f57829003601f168201915b505050505081565b606061147f8261181d565b6000611489612002565b905060008151116114a957604051806020016040528060008152506114d4565b806114b384612094565b6040516020016114c4929190612cfb565b6040516020818303038152906040525b915050919050565b600a543414611520576040517f08c379a000000000000000000000000000000000000000000000000000000000815260040161151790612eae565b60405180910390fd5b60008111611563576040517f08c379a000000000000000000000000000000000000000000000000000000000815260040161155a90612e2e565b60405180910390fd5b80600b838154811061159e577f4e487b7100000000000000000000000000000000000000000000000000000000600052603260045260246000fd5b90600052602060002090600302016002018190555033600b83815481106115ee577f4e487b7100000000000000000000000000000000000000000000000000000000600052603260045260246000fd5b906000526020600020906003020160010160006101000a81548173ffffffffffffffffffffffffffffffffffffffff021916908373ffffffffffffffffffffffffffffffffffffffff1602179055506116483330846119be565b3373ffffffffffffffffffffffffffffffffffffffff16827fb2ba12d2566848b13548a3741edb565b69d3cbce7796959cd67431610207eb138360405161168f9190612fce565b60405180910390a35050565b6000600560008473ffffffffffffffffffffffffffffffffffffffff1673ffffffffffffffffffffffffffffffffffffffff16815260200190815260200160002060008373ffffffffffffffffffffffffffffffffffffffff1673ffffffffffffffffffffffffffffffffffffffff16815260200190815260200160002060009054906101000a900460ff16905092915050565b611737611cf5565b600073ffffffffffffffffffffffffffffffffffffffff168173ffffffffffffffffffffffffffffffffffffffff1614156117a7576040517f08c379a000000000000000000000000000000000000000000000000000000000815260040161179e90612e6e565b60405180910390fd5b6117b081611d73565b50565b60007f01ffc9a7000000000000000000000000000000000000000000000000000000007bffffffffffffffffffffffffffffffffffffffffffffffffffffffff1916827bffffffffffffffffffffffffffffffffffffffffffffffffffffffff1916149050919050565b611826816121b8565b611865576040517f08c379a000000000000000000000000000000000000000000000000000000000815260040161185c90612f6e565b60405180910390fd5b50565b600033905090565b816004600083815260200190815260200160002060006101000a81548173ffffffffffffffffffffffffffffffffffffffff021916908373ffffffffffffffffffffffffffffffffffffffff160217905550808273ffffffffffffffffffffffffffffffffffffffff166118e383610e5d565b73ffffffffffffffffffffffffffffffffffffffff167f8c5be1e5ebec7d5bd14f71427d1e84f3dd0314c0f7b2291e5b200ac8c7c3b92560405160405180910390a45050565b60008061193583610e5d565b90508073ffffffffffffffffffffffffffffffffffffffff168473ffffffffffffffffffffffffffffffffffffffff1614806119775750611976818561169b565b5b806119b557508373ffffffffffffffffffffffffffffffffffffffff1661199d84610754565b73ffffffffffffffffffffffffffffffffffffffff16145b91505092915050565b8273ffffffffffffffffffffffffffffffffffffffff166119de82610e5d565b73ffffffffffffffffffffffffffffffffffffffff1614611a34576040517f08c379a0000000000000000000000000000000000000000000000000000000008152600401611a2b90612e8e565b60405180910390fd5b600073ffffffffffffffffffffffffffffffffffffffff168273ffffffffffffffffffffffffffffffffffffffff161415611aa4576040517f08c379a0000000000000000000000000000000000000000000000000000000008152600401611a9b90612ece565b60405180910390fd5b611ab183838360016121f9565b8273ffffffffffffffffffffffffffffffffffffffff16611ad182610e5d565b73ffffffffffffffffffffffffffffffffffffffff1614611b27576040517f08c379a0000000000000000000000000000000000000000000000000000000008152600401611b1e90612e8e565b60405180910390fd5b6004600082815260200190815260200160002060006101000a81549073ffffffffffffffffffffffffffffffffffffffff02191690556001600360008573ffffffffffffffffffffffffffffffffffffffff1673ffffffffffffffffffffffffffffffffffffffff168152602001908152602001600020600082825403925050819055506001600360008473ffffffffffffffffffffffffffffffffffffffff1673ffffffffffffffffffffffffffffffffffffffff16815260200190815260200160002060008282540192505081905550816002600083815260200190815260200160002060006101000a81548173ffffffffffffffffffffffffffffffffffffffff021916908373ffffffffffffffffffffffffffffffffffffffff160217905550808273ffffffffffffffffffffffffffffffffffffffff168473ffffffffffffffffffffffffffffffffffffffff167fddf252ad1be2c89b69c2b068fc378daa952ba7f163c4a11628f55a4df523b3ef60405160405180910390a4611cb383838360016121ff565b505050565b60006002600083815260200190815260200160002060009054906101000a900473ffffffffffffffffffffffffffffffffffffffff169050919050565b611cfd611868565b73ffffffffffffffffffffffffffffffffffffffff16611d1b6112ac565b73ffffffffffffffffffffffffffffffffffffffff1614611d71576040517f08c379a0000000000000000000000000000000000000000000000000000000008152600401611d6890612f4e565b60405180910390fd5b565b6000600660009054906101000a900473ffffffffffffffffffffffffffffffffffffffff16905081600660006101000a81548173ffffffffffffffffffffffffffffffffffffffff021916908373ffffffffffffffffffffffffffffffffffffffff1602179055508173ffffffffffffffffffffffffffffffffffffffff168173ffffffffffffffffffffffffffffffffffffffff167f8be0079c531659141344cd1fd0a4f28419497f9722a3daafe3b4186f6b6457e060405160405180910390a35050565b8173ffffffffffffffffffffffffffffffffffffffff168373ffffffffffffffffffffffffffffffffffffffff161415611ea8576040517f08c379a0000000000000000000000000000000000000000000000000000000008152600401611e9f90612eee565b60405180910390fd5b80600560008573ffffffffffffffffffffffffffffffffffffffff1673ffffffffffffffffffffffffffffffffffffffff16815260200190815260200160002060008473ffffffffffffffffffffffffffffffffffffffff1673ffffffffffffffffffffffffffffffffffffffff16815260200190815260200160002060006101000a81548160ff0219169083151502179055508173ffffffffffffffffffffffffffffffffffffffff168373ffffffffffffffffffffffffffffffffffffffff167f17307eab39ab6107e8899845ad3d59bd9653f200f220920489ca2b5937696c3183604051611f999190612dd1565b60405180910390a3505050565b611fb18484846119be565b611fbd84848484612205565b611ffc576040517f08c379a0000000000000000000000000000000000000000000000000000000008152600401611ff390612e4e565b60405180910390fd5b50505050565b606060078054612011906131ba565b80601f016020809104026020016040519081016040528092919081815260200182805461203d906131ba565b801561208a5780601f1061205f5761010080835404028352916020019161208a565b820191906000526020600020905b81548152906001019060200180831161206d57829003601f168201915b5050505050905090565b6060600060016120a38461239c565b01905060008167ffffffffffffffff8111156120e8577f4e487b7100000000000000000000000000000000000000000000000000000000600052604160045260246000fd5b6040519080825280601f01601f19166020018201604052801561211a5781602001600182028036833780820191505090505b509050600082602001820190505b6001156121ad578080600190039150507f3031323334353637383961626364656600000000000000000000000000000000600a86061a8153600a8581612197577f4e487b7100000000000000000000000000000000000000000000000000000000600052601260045260246000fd5b04945060008514156121a8576121ad565b612128565b819350505050919050565b60008073ffffffffffffffffffffffffffffffffffffffff166121da83611cb8565b73ffffffffffffffffffffffffffffffffffffffff1614159050919050565b50505050565b50505050565b60006122268473ffffffffffffffffffffffffffffffffffffffff166125d3565b1561238f578373ffffffffffffffffffffffffffffffffffffffff1663150b7a0261224f611868565b8786866040518563ffffffff1660e01b81526004016122719493929190612d3a565b602060405180830381600087803b15801561228b57600080fd5b505af19250505080156122bc57506040513d601f19601f820116820180604052508101906122b991906128ce565b60015b61233f573d80600081146122ec576040519150601f19603f3d011682016040523d82523d6000602084013e6122f1565b606091505b50600081511415612337576040517f08c379a000000000000000000000000000000000000000000000000000000000815260040161232e90612e4e565b60405180910390fd5b805181602001fd5b63150b7a0260e01b7bffffffffffffffffffffffffffffffffffffffffffffffffffffffff1916817bffffffffffffffffffffffffffffffffffffffffffffffffffffffff191614915050612394565b600190505b949350505050565b600080600090507a184f03e93ff9f4daa797ed6e38ed64bf6a1f0100000000000000008310612420577a184f03e93ff9f4daa797ed6e38ed64bf6a1f0100000000000000008381612416577f4e487b7100000000000000000000000000000000000000000000000000000000600052601260045260246000fd5b0492506040810190505b6d04ee2d6d415b85acef81000000008310612483576d04ee2d6d415b85acef81000000008381612479577f4e487b7100000000000000000000000000000000000000000000000000000000600052601260045260246000fd5b0492506020810190505b662386f26fc1000083106124d857662386f26fc1000083816124ce577f4e487b7100000000000000000000000000000000000000000000000000000000600052601260045260246000fd5b0492506010810190505b6305f5e1008310612527576305f5e100838161251d577f4e487b7100000000000000000000000000000000000000000000000000000000600052601260045260246000fd5b0492506008810190505b6127108310612572576127108381612568577f4e487b7100000000000000000000000000000000000000000000000000000000600052601260045260246000fd5b0492506004810190505b606483106125bb57606483816125b1577f4e487b7100000000000000000000000000000000000000000000000000000000600052601260045260246000fd5b0492506002810190505b600a83106125ca576001810190505b80915050919050565b6000808273ffffffffffffffffffffffffffffffffffffffff163b119050919050565b604051806060016040528060008152602001600073ffffffffffffffffffffffffffffffffffffffff168152602001600081525090565b600061264061263b84613045565b613020565b90508281526020810184848401111561265857600080fd5b612663848285613178565b509392505050565b60008135905061267a81613698565b92915050565b60008135905061268f816136af565b92915050565b6000813590506126a4816136c6565b92915050565b6000815190506126b9816136c6565b92915050565b600082601f8301126126d057600080fd5b81356126e084826020860161262d565b91505092915050565b6000813590506126f8816136dd565b92915050565b60006020828403121561271057600080fd5b600061271e8482850161266b565b91505092915050565b6000806040838503121561273a57600080fd5b60006127488582860161266b565b92505060206127598582860161266b565b9150509250929050565b60008060006060848603121561277857600080fd5b60006127868682870161266b565b93505060206127978682870161266b565b92505060406127a8868287016126e9565b9150509250925092565b600080600080608085870312156127c857600080fd5b60006127d68782880161266b565b94505060206127e78782880161266b565b93505060406127f8878288016126e9565b925050606085013567ffffffffffffffff81111561281557600080fd5b612821878288016126bf565b91505092959194509250565b6000806040838503121561284057600080fd5b600061284e8582860161266b565b925050602061285f85828601612680565b9150509250929050565b6000806040838503121561287c57600080fd5b600061288a8582860161266b565b925050602061289b858286016126e9565b9150509250929050565b6000602082840312156128b757600080fd5b60006128c584828501612695565b91505092915050565b6000602082840312156128e057600080fd5b60006128ee848285016126aa565b91505092915050565b60006020828403121561290957600080fd5b6000612917848285016126e9565b91505092915050565b6000806040838503121561293357600080fd5b6000612941858286016126e9565b9250506020612952858286016126e9565b9150509250929050565b60006129688383612c9b565b60608301905092915050565b61297d81613104565b82525050565b61298c81613104565b82525050565b61299b816130f2565b82525050565b60006129ac82613086565b6129b681856130b4565b93506129c183613076565b8060005b838110156129f25781516129d9888261295c565b97506129e4836130a7565b9250506001810190506129c5565b5085935050505092915050565b612a0881613116565b82525050565b6000612a1982613091565b612a2381856130c5565b9350612a33818560208601613187565b612a3c816132f3565b840191505092915050565b6000612a528261309c565b612a5c81856130d6565b9350612a6c818560208601613187565b612a75816132f3565b840191505092915050565b6000612a8b8261309c565b612a9581856130e7565b9350612aa5818560208601613187565b80840191505092915050565b6000612abe602d836130d6565b9150612ac982613304565b604082019050919050565b6000612ae1601f836130d6565b9150612aec82613353565b602082019050919050565b6000612b046032836130d6565b9150612b0f8261337c565b604082019050919050565b6000612b276026836130d6565b9150612b32826133cb565b604082019050919050565b6000612b4a6025836130d6565b9150612b558261341a565b604082019050919050565b6000612b6d6010836130d6565b9150612b7882613469565b602082019050919050565b6000612b906024836130d6565b9150612b9b82613492565b604082019050919050565b6000612bb36019836130d6565b9150612bbe826134e1565b602082019050919050565b6000612bd66029836130d6565b9150612be18261350a565b604082019050919050565b6000612bf9603e836130d6565b9150612c0482613559565b604082019050919050565b6000612c1c6020836130d6565b9150612c27826135a8565b602082019050919050565b6000612c3f6018836130d6565b9150612c4a826135d1565b602082019050919050565b6000612c626021836130d6565b9150612c6d826135fa565b604082019050919050565b6000612c85603d836130d6565b9150612c9082613649565b604082019050919050565b606082016000820151612cb16000850182612cdd565b506020820151612cc46020850182612974565b506040820151612cd76040850182612cdd565b50505050565b612ce68161316e565b82525050565b612cf58161316e565b82525050565b6000612d078285612a80565b9150612d138284612a80565b91508190509392505050565b6000602082019050612d346000830184612992565b92915050565b6000608082019050612d4f6000830187612992565b612d5c6020830186612992565b612d696040830185612cec565b8181036060830152612d7b8184612a0e565b905095945050505050565b6000604082019050612d9b6000830185612992565b612da86020830184612cec565b9392505050565b60006020820190508181036000830152612dc981846129a1565b905092915050565b6000602082019050612de660008301846129ff565b92915050565b60006020820190508181036000830152612e068184612a47565b905092915050565b60006020820190508181036000830152612e2781612ab1565b9050919050565b60006020820190508181036000830152612e4781612ad4565b9050919050565b60006020820190508181036000830152612e6781612af7565b9050919050565b60006020820190508181036000830152612e8781612b1a565b9050919050565b60006020820190508181036000830152612ea781612b3d565b9050919050565b60006020820190508181036000830152612ec781612b60565b9050919050565b60006020820190508181036000830152612ee781612b83565b9050919050565b60006020820190508181036000830152612f0781612ba6565b9050919050565b60006020820190508181036000830152612f2781612bc9565b9050919050565b60006020820190508181036000830152612f4781612bec565b9050919050565b60006020820190508181036000830152612f6781612c0f565b9050919050565b60006020820190508181036000830152612f8781612c32565b9050919050565b60006020820190508181036000830152612fa781612c55565b9050919050565b60006020820190508181036000830152612fc781612c78565b9050919050565b6000602082019050612fe36000830184612cec565b92915050565b6000606082019050612ffe6000830186612cec565b61300b6020830185612983565b6130186040830184612cec565b949350505050565b600061302a61303b565b905061303682826131ec565b919050565b6000604051905090565b600067ffffffffffffffff8211156130605761305f6132c4565b5b613069826132f3565b9050602081019050919050565b6000819050602082019050919050565b600081519050919050565b600081519050919050565b600081519050919050565b6000602082019050919050565b600082825260208201905092915050565b600082825260208201905092915050565b600082825260208201905092915050565b600081905092915050565b60006130fd8261314e565b9050919050565b600061310f8261314e565b9050919050565b60008115159050919050565b60007fffffffff0000000000000000000000000000000000000000000000000000000082169050919050565b600073ffffffffffffffffffffffffffffffffffffffff82169050919050565b6000819050919050565b82818337600083830152505050565b60005b838110156131a557808201518184015260208101905061318a565b838111156131b4576000848401525b50505050565b600060028204905060018216806131d257607f821691505b602082108114156131e6576131e5613295565b5b50919050565b6131f5826132f3565b810181811067ffffffffffffffff82111715613214576132136132c4565b5b80604052505050565b60006132288261316e565b91507fffffffffffffffffffffffffffffffffffffffffffffffffffffffffffffffff82141561325b5761325a613266565b5b600182019050919050565b7f4e487b7100000000000000000000000000000000000000000000000000000000600052601160045260246000fd5b7f4e487b7100000000000000000000000000000000000000000000000000000000600052602260045260246000fd5b7f4e487b7100000000000000000000000000000000000000000000000000000000600052604160045260246000fd5b6000601f19601f8301169050919050565b7f4552433732313a2063616c6c6572206973206e6f7420746f6b656e206f776e6560008201527f72206f7220617070726f76656400000000000000000000000000000000000000602082015250565b7f5072696365206d7573742062652067726561746572207468616e207a65726f00600082015250565b7f4552433732313a207472616e7366657220746f206e6f6e20455243373231526560008201527f63656976657220696d706c656d656e7465720000000000000000000000000000602082015250565b7f4f776e61626c653a206e6577206f776e657220697320746865207a65726f206160008201527f6464726573730000000000000000000000000000000000000000000000000000602082015250565b7f4552433732313a207472616e736665722066726f6d20696e636f72726563742060008201527f6f776e6572000000000000000000000000000000000000000000000000000000602082015250565b7f4d7573742070617920726f79616c747900000000000000000000000000000000600082015250565b7f4552433732313a207472616e7366657220746f20746865207a65726f2061646460008201527f7265737300000000000000000000000000000000000000000000000000000000602082015250565b7f4552433732313a20617070726f766520746f2063616c6c657200000000000000600082015250565b7f4552433732313a2061646472657373207a65726f206973206e6f74206120766160008201527f6c6964206f776e65720000000000000000000000000000000000000000000000602082015250565b7f506c656173652073656e64207468652061736b696e6720707269636520696e2060008201527f6f7264657220746f20636f6d706c657465207468652070757263686173650000602082015250565b7f4f776e61626c653a2063616c6c6572206973206e6f7420746865206f776e6572600082015250565b7f4552433732313a20696e76616c696420746f6b656e2049440000000000000000600082015250565b7f4552433732313a20617070726f76616c20746f2063757272656e74206f776e6560008201527f7200000000000000000000000000000000000000000000000000000000000000602082015250565b7f4552433732313a20617070726f76652063616c6c6572206973206e6f7420746f60008201527f6b656e206f776e6572206f7220617070726f76656420666f7220616c6c000000602082015250565b6136a1816130f2565b81146136ac57600080fd5b50565b6136b881613116565b81146136c357600080fd5b50565b6136cf81613122565b81146136da57600080fd5b50565b6136e68161316e565b81146136f157600080fd5b5056fea2646970667358221220fee5a2a7f18b8ed1647c9d01925bd78d3ecd93ad6faf990091a93c6a01c1daf364736f6c6343000804003368747470733a2f2f6261667962656965746f6e357a32367463726d68686e6c6e6573786f3374786d74727362627432737368696e68336b6d6366746a347870706668752e697066732e6e667473746f726167652e6c696e6b2f",
  "linkReferences": {},
  "deployedLinkReferences": {}
}